{
    "_format": "hh-sol-artifact-1",
    "contractName": "AntugrowEscrow",
    "sourceName": "contracts/AntugrowEscrow.sol",
    "abi": [
        {
            "inputs": [
                {
                    "internalType": "address",
                    "name": "_token",
                    "type": "address"
                }
            ],
            "stateMutability": "nonpayable",
            "type": "constructor"
        },
        {
            "inputs": [],
            "name": "ReentrancyGuardReentrantCall",
            "type": "error"
        },
        {
            "anonymous": false,
            "inputs": [
                {
                    "indexed": false,
                    "internalType": "uint256",
                    "name": "loanId",
                    "type": "uint256"
                },
                {
                    "indexed": false,
                    "internalType": "address",
                    "name": "investor",
                    "type": "address"
                },
                {
                    "indexed": false,
                    "internalType": "uint256",
                    "name": "amount",
                    "type": "uint256"
                }
            ],
            "name": "LoanCreated",
            "type": "event"
        },
        {
            "anonymous": false,
            "inputs": [
                {
                    "indexed": false,
                    "internalType": "uint256",
                    "name": "loanId",
                    "type": "uint256"
                },
                {
                    "indexed": false,
                    "internalType": "uint256",
                    "name": "amount",
                    "type": "uint256"
                }
            ],
            "name": "LoanRepaid",
            "type": "event"
        },
        {
            "inputs": [
                {
                    "internalType": "uint256",
                    "name": "_amount",
                    "type": "uint256"
                },
                {
                    "internalType": "uint256",
                    "name": "_duration",
                    "type": "uint256"
                }
            ],
            "name": "createLoan",
            "outputs": [],
            "stateMutability": "nonpayable",
            "type": "function"
        },
        {
            "inputs": [
                {
                    "internalType": "address",
                    "name": "_investor",
                    "type": "address"
                }
            ],
            "name": "getInvestorLoans",
            "outputs": [
                {
                    "internalType": "uint256[]",
                    "name": "",
                    "type": "uint256[]"
                }
            ],
            "stateMutability": "view",
            "type": "function"
        },
        {
            "inputs": [
                {
                    "internalType": "uint256",
                    "name": "_loanId",
                    "type": "uint256"
                }
            ],
            "name": "getLoanDetails",
            "outputs": [
                {
                    "components": [
                        {
                            "internalType": "address",
                            "name": "investor",
                            "type": "address"
                        },
                        {
                            "internalType": "uint256",
                            "name": "amount",
                            "type": "uint256"
                        },
                        {
                            "internalType": "uint256",
                            "name": "repaidAmount",
                            "type": "uint256"
                        },
                        {
                            "internalType": "uint256",
                            "name": "dueDate",
                            "type": "uint256"
                        },
                        {
                            "internalType": "bool",
                            "name": "isActive",
                            "type": "bool"
                        }
                    ],
                    "internalType": "struct AntugrowEscrow.Loan",
                    "name": "",
                    "type": "tuple"
                }
            ],
            "stateMutability": "view",
            "type": "function"
        },
        {
            "inputs": [
                {
                    "internalType": "address",
                    "name": "",
                    "type": "address"
                },
                {
                    "internalType": "uint256",
                    "name": "",
                    "type": "uint256"
                }
            ],
            "name": "investorLoans",
            "outputs": [
                {
                    "internalType": "uint256",
                    "name": "",
                    "type": "uint256"
                }
            ],
            "stateMutability": "view",
            "type": "function"
        },
        {
            "inputs": [],
            "name": "loanIdCounter",
            "outputs": [
                {
                    "internalType": "uint256",
                    "name": "",
                    "type": "uint256"
                }
            ],
            "stateMutability": "view",
            "type": "function"
        },
        {
            "inputs": [
                {
                    "internalType": "uint256",
                    "name": "",
                    "type": "uint256"
                }
            ],
            "name": "loans",
            "outputs": [
                {
                    "internalType": "address",
                    "name": "investor",
                    "type": "address"
                },
                {
                    "internalType": "uint256",
                    "name": "amount",
                    "type": "uint256"
                },
                {
                    "internalType": "uint256",
                    "name": "repaidAmount",
                    "type": "uint256"
                },
                {
                    "internalType": "uint256",
                    "name": "dueDate",
                    "type": "uint256"
                },
                {
                    "internalType": "bool",
                    "name": "isActive",
                    "type": "bool"
                }
            ],
            "stateMutability": "view",
            "type": "function"
        },
        {
            "inputs": [],
            "name": "owner",
            "outputs": [
                {
                    "internalType": "address",
                    "name": "",
                    "type": "address"
                }
            ],
            "stateMutability": "view",
            "type": "function"
        },
        {
            "inputs": [
                {
                    "internalType": "uint256",
                    "name": "_loanId",
                    "type": "uint256"
                },
                {
                    "internalType": "uint256",
                    "name": "_amount",
                    "type": "uint256"
                }
            ],
            "name": "repayLoan",
            "outputs": [],
            "stateMutability": "nonpayable",
            "type": "function"
        },
        {
            "inputs": [],
            "name": "token",
            "outputs": [
                {
                    "internalType": "contract IERC20",
                    "name": "",
                    "type": "address"
                }
            ],
            "stateMutability": "view",
            "type": "function"
        }
    ],
    "bytecode": "0x608060405234801561001057600080fd5b5060405161099238038061099283398101604081905261002f91610062565b6001600081905580546001600160a01b039092166001600160a01b03199283161790556002805490911633179055610092565b60006020828403121561007457600080fd5b81516001600160a01b038116811461008b57600080fd5b9392505050565b6108f1806100a16000396000f3fe608060405234801561001057600080fd5b50600436106100935760003560e01c806398cd90b51161006657806398cd90b5146101595780639d939d161461016c578063a65d808614610175578063e1ec3c6814610195578063fc0c546a1461021457600080fd5b8063654cb04e1461009857806366877b8d146100be5780638a700b53146101195780638da5cb5b1461012e575b600080fd5b6100ab6100a6366004610786565b610227565b6040519081526020015b60405180910390f35b6100d16100cc3660046107b0565b610258565b6040516100b5919081516001600160a01b0316815260208083015190820152604080830151908201526060808301519082015260809182015115159181019190915260a00190565b61012c6101273660046107c9565b6102ef565b005b600254610141906001600160a01b031681565b6040516001600160a01b0390911681526020016100b5565b61012c6101673660046107c9565b61050a565b6100ab60035481565b6101886101833660046107eb565b6106d4565b6040516100b5919061080d565b6101e06101a33660046107b0565b6004602081905260009182526040909120805460018201546002830154600384015493909401546001600160a01b03909216939092909160ff1685565b604080516001600160a01b03909616865260208601949094529284019190915260608301521515608082015260a0016100b5565b600154610141906001600160a01b031681565b6005602052816000526040600020818154811061024357600080fd5b90600052602060002001600091509150505481565b6102956040518060a0016040528060006001600160a01b031681526020016000815260200160008152602001600081526020016000151581525090565b50600090815260046020818152604092839020835160a08101855281546001600160a01b031681526001820154928101929092526002810154938201939093526003830154606082015291015460ff161515608082015290565b6102f7610740565b60008281526004602081905260409091209081015460ff166103555760405162461bcd60e51b81526020600482015260126024820152714c6f616e206973206e6f742061637469766560701b60448201526064015b60405180910390fd5b6001546040516323b872dd60e01b8152336004820152306024820152604481018490526001600160a01b03909116906323b872dd906064016020604051808303816000875af11580156103ac573d6000803e3d6000fd5b505050506040513d601f19601f820116820180604052508101906103d09190610851565b61040e5760405162461bcd60e51b815260206004820152600f60248201526e151c985b9cd9995c8819985a5b1959608a1b604482015260640161034c565b818160020160008282546104229190610889565b909155505060018101546002820154106104c1576004818101805460ff191690556001805483549184015460405163a9059cbb60e01b81526001600160a01b03938416948101949094526024840152169063a9059cbb906044016020604051808303816000875af115801561049b573d6000803e3d6000fd5b505050506040513d601f19601f820116820180604052508101906104bf9190610851565b505b60408051848152602081018490527f040cee90ee4799897c30ca04e5feb6fa43dbba9b6d084b4b257cdafd84ba013e91015b60405180910390a1506105066001600055565b5050565b610512610740565b6001546040516323b872dd60e01b8152336004820152306024820152604481018490526001600160a01b03909116906323b872dd906064016020604051808303816000875af1158015610569573d6000803e3d6000fd5b505050506040513d601f19601f8201168201806040525081019061058d9190610851565b6105cb5760405162461bcd60e51b815260206004820152600f60248201526e151c985b9cd9995c8819985a5b1959608a1b604482015260640161034c565b60038054600091826105dc836108a2565b9190505590506040518060a00160405280336001600160a01b031681526020018481526020016000815260200183426106159190610889565b815260016020918201819052600084815260048084526040808320865181546001600160a01b0319166001600160a01b03909116178155868601518186015586820151600282015560608088015160038301556080909701519201805460ff19169215159290921790915533808352600585528183208054948501815583529184902090920185905581518581529283015281018590527f8910ba13a55695f056e224bbbc6b65d866b12a8c2fbdf387fb853a1cca298cd791016104f3565b6001600160a01b03811660009081526005602090815260409182902080548351818402810184019094528084526060939283018282801561073457602002820191906000526020600020905b815481526020019060010190808311610720575b50505050509050919050565b60026000540361076357604051633ee5aeb560e01b815260040160405180910390fd5b6002600055565b80356001600160a01b038116811461078157600080fd5b919050565b6000806040838503121561079957600080fd5b6107a28361076a565b946020939093013593505050565b6000602082840312156107c257600080fd5b5035919050565b600080604083850312156107dc57600080fd5b50508035926020909101359150565b6000602082840312156107fd57600080fd5b6108068261076a565b9392505050565b6020808252825182820181905260009190848201906040850190845b8181101561084557835183529284019291840191600101610829565b50909695505050505050565b60006020828403121561086357600080fd5b8151801515811461080657600080fd5b634e487b7160e01b600052601160045260246000fd5b8082018082111561089c5761089c610873565b92915050565b6000600182016108b4576108b4610873565b506001019056fea264697066735822122027fe3a314473cacc90008a46513168f96e8afa0c3893a077e40c770db49967c464736f6c63430008180033",
    "linkReferences": {},
    "deployedLinkReferences": {}
}